{
  "contractName": "HelloChina",
  "abi": [
    {
      "constant": false,
      "inputs": [],
      "name": "sayHi",
      "outputs": [
        {
          "name": "",
          "type": "string"
        }
      ],
      "payable": false,
      "stateMutability": "nonpayable",
      "type": "function"
    }
  ],
  "bytecode": "0x608060405234801561001057600080fd5b5061013f806100206000396000f300608060405260043610610041576000357c0100000000000000000000000000000000000000000000000000000000900463ffffffff1680630c49c36c14610046575b600080fd5b34801561005257600080fd5b5061005b6100d6565b6040518080602001828103825283818151815260200191508051906020019080838360005b8381101561009b578082015181840152602081019050610080565b50505050905090810190601f1680156100c85780820380516001836020036101000a031916815260200191505b509250505060405180910390f35b60606040805190810160405280600b81526020017f48656c6c6f204368696e610000000000000000000000000000000000000000008152509050905600a165627a7a723058209459716b6f6649479e7518734ae3c099c702c27b0be31584e8cf62a5ca87e5be0029",
  "source": "pragma solidity ^0.4.4;\n\n\ncontract HelloChina {\n  function sayHi() returns(string) {\n    return 'Hello China';\n  }\n}\n",
  "sourcePath": "E:\\blockchain\\HelloChina\\contracts\\HelloChina.sol",
  "compiler": {
    "name": "solc",
    "version": "0.4.23+commit.124ca40d.Emscripten.clang"
  },
  "schemaVersion": "2.0.0",
  "updatedAt": "2018-05-10T03:31:22.285Z"
}